:020000040800F2
:1000000000500020C1090008DD080008E5080008CC
:10001000ED080008F5080008FD08000800000000D1
:1000200000000000000000000000000005090008BA
:1000300011090008000000001D0900082909000836
:10004000090A0008090A0008090A0008090A000844
:10005000090A0008090A0008090A0008090A000834
:10006000090A0008090A0008090A0008090A000824
:10007000090A0008090A0008090A0008090A000814
:10008000090A0008090A0008090A0008090A000804
:1000900035090008090A0008090A0008090A0008C9
:1000A000090A0008090A0008090A0008090A0008E4
:1000B000090A0008090A0008090A0008090A0008D4
:1000C000090A0008090A0008090A0008090A0008C4
:1000D000090A0008090A0008090A0008090A0008B4
:1000E000090A0008090A0008090A000800000000BF
:1000F0000000000000000000000000000000000000
:0C01000000000000000000005FF808F1A3
:10010C0010B5054C237833B9044B13B10448AFF345
:10011C0000800123237010BDCC01002000000000E2
:10012C006495000808B5034B1BB103490348AFF3B2
:10013C00008008BD00000000D0010020649500087C
:10014C00034613F8012B002AFBD1181A013870470B
:10015C0080B582B000AF7860044A7B6813600020E1
:10016C0000F006F800BF0837BD4680BDE80100204E
:10017C0080B584B000AF0346FB71FB79002B01D036
:10018C00802300E00023FB73002000F03DF80346C1
:10019C005BB203F07F035AB297F90F3013435BB293
:1001AC00DBB21946002000F011F800BF1037BD4635
:1001BC0080BD80B500AF002000F026F80346DB11AF
:1001CC00DBB203F00103DBB2184680BD80B586B00C
:1001DC0002AF03460A46FB711346BB71FB793B73B6
:1001EC00BB797B73074B186807F10C024FF47A73D9
:1001FC0000930223D02101F05FF800BF1037BD46F9
:10020C0080BD00BFE801002080B586B002AF034678
:10021C00FB710D4B1868FA1D4FF47A730093012390
:10022C00D02101F049F8084B186807F10F024FF480
:10023C007A7300930123D02101F03CF9FB7B184623
:10024C001037BD4680BD00BFE801002080B500AF6F
:10025C000320FFF7D9FF0346184600F02AF903469E
:10026C00184680BD80B500AF0420FFF7CDFF0346D4
:10027C00184600F01EF90346184680BD80B500AF45
:10028C000520FFF7C1FF0346184600F012F903469C
:10029C00184680BD80B582B000AF1020FFF7B4FFC8
:1002AC0003461A46920013441A4691001A460B460E
:1002BC0013449B00FB800620FFF7A6FF034618465D
:1002CC0000F0F7F803461A46FB8813449BB2184615
:1002DC000837BD4680BD80B500AF0220FFF794FF04
:1002EC00034603F03F03DBB2184600F0E2F8034686
:1002FC00184680BD80B500AF0120FFF785FF03468F
:10030C00184600F0D6F80346184680BD80B500AFFD
:10031C000820FFF779FF03465BB2184680BD80B515
:10032C0000AF0920FFF770FF0346184680BD80B56B
:10033C0000AF0020FFF768FF034603F07F03DBB23A
:10034C00184600F0B6F80346184680BD80B582B05A
:10035C0000AF0346FB71FB79184600F0C3F8034667
:10036C0019460320FFF732FF00BF0837BD4680BD9A
:10037C0080B582B000AF0346FB71FB79184600F0E4
:10038C00B1F8034619460520FFF720FF00BF0837D8
:10039C00BD4680BD80B582B000AF0346FB71FB79D2
:1003AC00184600F09FF8034619460420FFF70EFF8D
:1003BC0000BF0837BD4680BD80B582B000AF034694
:1003CC00FB80FB88104AA2FB03235B099BB2DBB2C8
:1003DC0019461020FFF7FAFEFB880B4AA2FB03120A
:1003EC005209642101FB02F29B1A9BB2DBB2184644
:1003FC0000F078F8034619460620FFF7E7FE00BF29
:10040C000837BD4680BD00BF1F85EB5180B582B05B
:10041C0000AF0346FB71FB79184600F063F8034606
:10042C0019460220FFF7D2FE00BF0837BD4680BD3B
:10043C0080B582B000AF0346FB71FB79184600F023
:10044C0051F8034619460120FFF7C0FE00BF0837DC
:10045C00BD4680BD80B584B000AF0346FB71FFF78D
:10046C00A8FE0346FB73FA79FB7B1343DBB21846F9
:10047C0000F038F8034619460020FFF7A7FE00BF2E
:10048C001037BD4680BD80B582B000AF03460A462A
:10049C00FB711346BB71FB7919460820FFF796FEDA
:1004AC00BB7919460920FFF791FE00BF0837BD46FE
:1004BC0080BD80B483B000AF0346FB71FB791B0990
:1004CC00DBB21A46920013445B00DAB2FB7903F0FC
:1004DC000F03DBB21344DBB218460C37BD4680BCAD
:1004EC007047000080B483B000AF0346FB71FA790B
:1004FC000C4BA3FB0213D9080B469B000B445B006F
:10050C00D31ADAB2FB790749A1FB0313DB08DBB280
:10051C001B01DBB21344DBB218460C37BD4680BC62
:10052C00704700BFCDCCCCCC2DE9F041ACB008AFBE
:10053C0000F066FA00F0A0F800F026F900F0F6F8EA
:10054C0007F0CEFE494B07F168041D460FCD0FC4D2
:10055C0095E8070084E807004548FFF7F9FD0021FE
:10056C000820FFF790FF0520FFF714FF0420FFF78A
:10057C00FFFE4FF4FD60FFF71FFF0520FFF7E6FEBF
:10058C000B20FFF743FF1220FFF752FF0020FFF76D
:10059C0061FFFFF767FE034687F88F30FFF76EFEAB
:1005AC00034687F88E30FFF775FE0346A7F88C30AC
:1005BC00FFF74CFE034687F88B30FFF78CFE0346A3
:1005CC0087F88A30FFF796FE034687F88930FFF7E5
:1005DC00AEFE034687F88830FFF798FE034687F88F
:1005EC008730FFF79CFE034687F8863000237B603C
:1005FC0007F1080360220021184608F01DFBB7F82C
:10060C008CE097F88E8097F98F2097F88A1097F8DE
:10061C00890097F8884097F9875097F8866097F883
:10062C008B309B0090333B4453F8283C07F1040C6F
:10063C00069305960495039402900191009243460B
:10064C0072460C49604608F0D7FA3B1D1846FFF776
:10065C0077FD03469AB23B1D1146184607F0FEFE85
:10066C00FA2000F02FFA00BF93E700BF00960008B5
:10067C00EC0100207C95000880B594B000AF07F128
:10068C00280328220021184608F0D6FA07F1140393
:10069C0000221A605A609A60DA601A613B1D0022CF
:1006AC001A605A609A60DA600123BB624FF480339F
:1006BC00FB6200233B630123BB6302237B644FF487
:1006CC008033BB644FF4E013FB6407F12803184636
:1006DC0003F04EFA0346002B01D000F083F80F23F1
:1006EC007B610223BB610023FB614FF480633B629F
:1006FC0000237B6207F114030221184603F0BAFCB5
:10070C000346002B01D000F06DF810237B60002312
:10071C003B613B1D184603F027FE0346002B01D01E
:10072C0000F060F800BF5037BD4680BD80B500AF0B
:10073C00124B134A1A60114B124A5A600F4B00228B
:10074C009A600E4B0022DA600C4B4FF480421A6117
:10075C000A4B00225A61094B00229A61074B002276
:10076C00DA61064B00221A62044800F061FC034671
:10077C00002B01D000F036F800BF80BDEC0100204A
:10078C0000540040A086010080B485B000AF144B2B
:10079C009B69134A43F020039361114B9B6903F04F
:1007AC002003FB60FB680E4B9B690D4A43F004036E
:1007BC0093610B4B9B6903F00403BB60BB68084B54
:1007CC009B69074A43F008039361054B9B6903F04F
:1007DC0008037B607B6800BF1437BD4680BC704744
:1007EC000010024080B400AF72B600BF00BFFDE73E
:1007FC0080B485B000AF154B9B69144A43F00103DC
:10080C009361124B9B6903F00103BB60BB680F4BF8
:10081C00DB690E4A43F08053D3610C4BDB6903F068
:10082C0080537B607B680A4B5B68FB60FB6823F042
:10083C00E063FB60FB6843F00073FB60044AFB68F9
:10084C00536000BF1437BD4680BC70470010024097
:10085C000000014080B588B000AF786007F110034C
:10086C0000221A605A609A60DA607B681B68154A2D
:10087C00934223D1144B9B69134A43F008039361B1
:10088C00114B9B6903F00803FB60FB68C0233B61C1
:10089C0012237B610323FB6107F1100319460B48FC
:1008AC0000F042FA084BDB69074A43F40013D361AA
:1008BC00054BDB6903F40013BB60BB6800BF20373A
:1008CC00BD4680BD0054004000100240000C0140A9
:1008DC0080B400AF00BFFDE780B400AF00BFFDE700
:1008EC0080B400AF00BFFDE780B400AF00BFFDE7F0
:1008FC0080B400AF00BFFDE780B400AF00BFBD46C1
:10090C0080BC704780B400AF00BFBD4680BC704750
:10091C0080B400AF00BFBD4680BC704780B500AF4F
:10092C0000F0B4F800BF80BD80B500AF024801F004
:10093C00D7FC00BF80BD00BF100F002080B586B073
:10094C0000AF7860144A154BD31A7B617B693B610D
:10095C00134B1B68002B02D1114B124A1A60104B1F
:10096C001A687B6813443A699A4207D208F06CF90A
:10097C0003460C221A604FF0FF3309E0084B1B684A
:10098C00FB60074B1A687B681344054A1360FB68CD
:10099C0018461837BD4680BD0050002000040000EA
:1009AC00400200206815002080B400AF00BFBD4697
:1009BC0080BC7047FFF7F8FF0B480C490C4A00232A
:1009CC0002E0D458C4500433C4188C42F9D3094AF9
:1009DC00094C002301E013600432A242FBD308F05F
:1009EC0039F9FFF7A1FD704700000020CC01002071
:1009FC00D4960008CC01002068150020FEE700000A
:100A0C0080B500AF084B1B68074A43F01003136016
:100A1C00032000F047F90F2000F008F8FFF7E8FE7C
:100A2C000023184680BD00BF0020024080B582B074
:100A3C0000AF7860124B1A68124B1B7819464FF4B2
:100A4C007A73B3FBF1F3B2FBF3F3184600F05FF9E2
:100A5C000346002B01D001230EE07B680F2B0AD834
:100A6C00002279684FF0FF3000F027F9064A7B68C6
:100A7C001360002300E0012318460837BD4680BDF3
:100A8C0000000020080000200400002080B400AF0B
:100A9C00054B1B781A46054B1B681344034A13601D
:100AAC0000BFBD4680BC70470800002044020020F7
:100ABC0080B400AF024B1B681846BD4680BC704723
:100ACC004402002080B584B000AF7860FFF7F0FFDF
:100ADC00B8607B68FB60FB68B3F1FF3F05D00A4B45
:100AEC001B781A46FB681344FB6000BFFFF7E0FF5E
:100AFC000246BB68D31AFA689A42F7D800BF00BF07
:100B0C001037BD4680BD00BF0800002080B485B002
:100B1C0000AF78607B6803F00703FB600C4BDB686D
:100B2C00BB60BA684FF6FF031340BB60FB681A0248
:100B3C00BB68134343F0BF6343F40033BB60044A08
:100B4C00BB68D36000BF1437BD4680BC704700BF84
:100B5C0000ED00E080B400AF044BDB681B0A03F02F
:100B6C0007031846BD4680BC704700BF00ED00E08F
:100B7C0080B483B000AF0346FB7197F90730002BAC
:100B8C000BDBFB7903F01F02064997F907305B0971
:100B9C00012000FA02F241F8232000BF0C37BD46B9
:100BAC0080BC704700E100E080B483B000AF034626
:100BBC003960FB7197F90730002B0ADB3B68DAB21E
:100BCC000C4997F907301201D2B20B4483F8002379
:100BDC000AE03B68DAB20849FB7903F00F03043BE7
:100BEC001201D2B20B441A7600BF0C37BD4680BC42
:100BFC00704700BF00E100E000ED00E080B489B078
:100C0C0000AFF860B9607A60FB6803F00703FB6122
:100C1C00FB69C3F10703042B28BF0423BB61FB69E9
:100C2C000433062B02D9FB69033B00E000237B61F4
:100C3C004FF0FF32BB6902FA03F3DA43BB681A4088
:100C4C007B699A404FF0FF317B6901FA03F3D9437A
:100C5C007B680B40134318462437BD4680BC704755
:100C6C0080B582B000AF78607B68013BB3F1807FC8
:100C7C0001D301230FE00A4A7B68013B53600F212B
:100C8C004FF0FF30FFF790FF054B00229A60044BAA
:100C9C0007221A60002318460837BD4680BD00BFE6
:100CAC0010E000E080B582B000AF78607868FFF7A4
:100CBC002DFF00BF0837BD4680BD80B586B000AFA4
:100CCC000346B9607A60FB7300237B61FFF742FF38
:100CDC0078617A68B9687869FFF790FF024697F9EE
:100CEC000F3011461846FFF75FFF00BF1837BD469F
:100CFC0080BD80B582B000AF0346FB7197F9073019
:100D0C001846FFF735FF00BF0837BD4680BD80B5DC
:100D1C0082B000AF78607868FFF7A2FF03461846F0
:100D2C000837BD4680BD000080B48BB000AF786042
:100D3C00396000237B6200233B6269E101227B6AFC
:100D4C0002FA03F3FB613B681B68FA691340BB6151
:100D5C00BA69FB699A4240F058813B685B689A4AD1
:100D6C0093425ED0984A934275D8984A934258D091
:100D7C00964A93426FD8964A934252D0944A9342E1
:100D8C0069D8944A93424CD0924A934263D8924A7F
:100D9C00934246D0904A93425DD8122B2AD8122BFC
:100DAC0059D801A252F823F02F0E0008090E0008A2
:100DBC001B0E00085D0E0008630E0008630E000891
:100DCC00630E0008630E0008630E0008630E000833
:100DDC00630E0008630E0008630E0008630E000823
:100DEC00630E0008630E0008630E0008110E000865
:100DFC00250E0008794A934213D02CE03B68DB683F
:100E0C003B6229E03B68DB6804333B6224E03B68CF
:100E1C00DB6808333B621FE03B68DB680C333B62EA
:100E2C001AE03B689B68002B02D104233B6213E061
:100E3C003B689B68012B05D108233B627B68FA69F0
:100E4C001A6109E008233B627B68FA695A6103E086
:100E5C0000233B6200E000BFBB69FF2B01D87B681D
:100E6C0001E07B6804337B61BB69FF2B02D87B6A92
:100E7C009B0002E07B6A083B9B003B617B691A6824
:100E8C000F213B6901FA03F3DB431A40396A3B69D2
:100E9C0001FA03F31A437B691A603B685B6803F041
:100EAC008053002B00F0B1804D4B9B694C4A43F0B2
:100EBC00010393614A4B9B6903F00103BB60BB6860
:100ECC00484A7B6A9B08023352F82330FB607B6AEA
:100EDC0003F003039B000F2202FA03F3DB43FA68CF
:100EEC001340FB607B68404A934213D07B683F4AB7
:100EFC0093420DD07B683E4A934207D07B683D4AB3
:100F0C00934201D1032306E0042304E0022302E010
:100F1C00012300E000237A6A02F00302920093405E
:100F2C00FA681343FB602F497B6A9B080233FA680B
:100F3C0041F823203B685B6803F48013002B06D038
:100F4C002D4B9A682C49BB6913438B6006E02A4BE6
:100F5C009A68BB69DB43284913408B603B685B682C
:100F6C0003F40013002B06D0234BDA682249BB692B
:100F7C001343CB6006E0204BDA68BB69DB431E49A8
:100F8C001340CB603B685B6803F40033002B06D046
:100F9C00194B5A681849BB6913434B6006E0164B52
:100FAC005A68BB69DB43144913404B603B685B6870
:100FBC0003F48033002B21D00F4B1A680E49BB6908
:100FCC0013430B6021E000BF000032100000311011
:100FDC00000022100000211000001210000011105F
:100FEC00001002400000014000080140000C0140CC
:100FFC000010014000140140000401400B4B1A6822
:10100C00BB69DB43094913400B607B6A01337B628C
:10101C003B681A687B6A22FA03F3002B7FF48EAECE
:10102C0000BF00BF2C37BD4680BC70470004014098
:10103C0080B584B000AF78607B68002B01D10123B0
:10104C002BE17B6893F83D30DBB2002B06D17B683B
:10105C00002283F83C207868FFF7FCFB7B68242295
:10106C0083F83D207B681B681A687B681B6822F03C
:10107C0001021A607B681B681A687B681B6842F463
:10108C0000421A607B681B681A687B681B6822F434
:10109C0000421A6003F036F9F8607B685B68814A9D
:1010AC00934207D8FB68804A934294BF01230023E4
:1010BC00DBB206E0FB687D4A934294BF0123002318
:1010CC00DBB2002B01D00123E7E0FB68784AA2FBDE
:1010DC0003239B0CBB607B681B685B6823F03F01A0
:1010EC007B681B68BA680A435A607B681B681B6A7A
:1010FC0023F03F017B685B686A4A934202D8BB6865
:10110C00013309E0BB684FF4967202FB03F3694AA2
:10111C00A2FB03239B0901337A6812680B43136209
:10112C007B681B68DB6923F44F4222F0FF027B686B
:10113C005B685C498B4219D8FB68591E7B685B68FD
:10114C005B00B1FBF3F3591C40F6FC730B40002B16
:10115C000AD0FB68591E7B685B685B00B1FBF3F33C
:10116C000133C3F30B0351E004234FE07B689B680E
:10117C00002B11D1FB68581E7B6859680B465B002D
:10118C000B44B0FBF3F30133C3F30B03002B0CBF85
:10119C0001230023DBB212E0FB68581E7B68596800
:1011AC000B469B000B4499000B44B0FBF3F301334B
:1011BC00C3F30B03002B0CBF01230023DBB2002B6A
:1011CC0001D0012322E07B689B68002B0ED1FB68C9
:1011DC00581E7B6859680B465B000B44B0FBF3F35D
:1011EC000133C3F30B0343F400430FE0FB68581EB9
:1011FC007B6859680B469B000B4499000B44B0FB71
:10120C00F3F30133C3F30B0343F4404379680968E8
:10121C001343CB617B681B681B6823F0C0017B68A0
:10122C00DA697B681B6A1A437B681B680A431A607D
:10123C007B681B689B6823F4034323F0FF037A68E5
:10124C0011697A68D26811437A6812680B4393600B
:10125C007B681B68DB6823F0FF017B685A697B683D
:10126C009B691A437B681B680A43DA607B681B68BE
:10127C001A687B681B6842F001021A607B680022C6
:10128C001A647B68202283F83D207B6800221A6355
:10129C007B68002283F83E20002318461037BD4699
:1012AC0080BD00BFA08601007F841E00FF083D00AA
:1012BC0083DE1B43D34D621080B588B002AFF8605B
:1012CC007A601A460B467B8113463B81FFF7F0FB95
:1012DC007861FB6893F83D30DBB2202B40F0E08066
:1012EC007B690093192301227049F86800F09EFC79
:1012FC000346002B01D00223D3E0FB6893F83C306B
:10130C00012B01D10223CCE0FB68012283F83C20A5
:10131C00FB681B681B6803F00103012B07D0FB68FB
:10132C001B681A68FB681B6842F001021A60FB68B4
:10133C001B681A68FB681B6822F400621A60FB6861
:10134C00212283F83D20FB68102283F83E20FB68A5
:10135C0000221A64FB687A685A62FB683A895A85DB
:10136C00FB685B8D9AB2FB681A85FB68504ADA629F
:10137C0079897B693A6AF86800F008FB0346002B10
:10138C0001D001238DE000233B61FB681B685B6986
:10139C003B61FB681B689B693B613B6966E07A6952
:1013AC00396AF86800F05CFD0346002B0DD0FB6831
:1013BC001B6C042B07D1FB681B681A68FB681B6845
:1013CC0042F400721A6001236BE0FB685B6A1A78C6
:1013DC00FB681B681A61FB685B6A5A1CFB685A62E3
:1013EC00FB685B8D9BB2013B9AB2FB685A85FB682C
:1013FC001B8D013B9AB2FB681A85FB681B685B6905
:10140C0003F00403042B1BD1FB681B8D002B17D09E
:10141C00FB685B6A1A78FB681B681A61FB685B6A7D
:10142C005A1CFB685A62FB685B8D9BB2013B9AB2FB
:10143C00FB685A85FB681B8D013B9AB2FB681A85C9
:10144C007A69396AF86800F053FD0346002B0DD019
:10145C00FB681B6C042B07D1FB681B681A68FB68C4
:10146C001B6842F400721A6001231AE0FB681B8DA2
:10147C00002B94D1FB681B681A68FB681B6842F44C
:10148C0000721A60FB68202283F83D20FB68002262
:10149C0083F83E20FB68002283F83C20002300E008
:1014AC00022318461837BD4680BD00BF020010004D
:1014BC000000FFFF80B58CB002AFF8607A601A466E
:1014CC000B467B8113463B8100233B62FFF7F0FA0E
:1014DC007862FB6893F83D30DBB2202B40F04B82F6
:1014EC007B6A0093192301227F49F86800F09EFB68
:1014FC000346002B01D002233EE2FB6893F83C30FC
:10150C00012B01D1022337E2FB68012283F83C2036
:10151C00FB681B681B6803F00103012B07D0FB68F9
:10152C001B681A68FB681B6842F001021A60FB68B2
:10153C001B681A68FB681B6822F400621A60FB685F
:10154C00222283F83D20FB68102283F83E20FB68A2
:10155C0000221A64FB687A685A62FB683A895A85D9
:10156C00FB685B8D9AB2FB681A85FB685F4ADA628E
:10157C0079897B6A3A6BF86800F08AFA0346002B8B
:10158C0001D00123F8E1FB681B8D002B13D1002344
:10159C00FB61FB681B685B69FB61FB681B689B69F3
:1015AC00FB61FB69FB681B681A68FB681B6842F4EB
:1015BC0000721A60CCE1FB681B8D012B1ED1FB68FD
:1015CC001B681A68FB681B6822F480621A6072B68A
:1015DC0000BF0023BB61FB681B685B69BB61FB68D8
:1015EC001B689B69BB61BB69FB681B681A68FB685D
:1015FC001B6842F400721A6062B635E0FB681B8D02
:10160C00022B1ED1FB681B681A68FB681B6842F42E
:10161C0000621A6072B600BF00237B61FB681B6816
:10162C005B697B61FB681B689B697B617B69FB6801
:10163C001B681A68FB681B6822F480621A6062B629
:10164C0012E0FB681B681A68FB681B6842F4806236
:10165C001A6000233B61FB681B685B693B61FB689C
:10166C001B689B693B613B6972E1FB681B8D032B1B
:10167C0000F21F81FB681B8D012B23D17A6A396B19
:10168C00F86800F07DFC0346002B01D0012373E1C8
:10169C00FB681B681A69FB685B6AD2B21A70FB683C
:1016AC005B6A5A1CFB685A62FB681B8D013B9AB241
:1016BC00FB681A85FB685B8D9BB2013B9AB2FB6899
:1016CC005A8545E1FB681B8D022B52D17B6A009336
:1016DC003B6B00220649F86800F0A8FA0346002B81
:1016EC0008D0012348E100BF020010000000FFFFFA
:1016FC000400010072B600BFFB681B681A68FB6827
:10170C001B6842F400721A60FB681B681A69FB685C
:10171C005B6AD2B21A70FB685B6A5A1CFB685A622D
:10172C00FB681B8D013B9AB2FB681A85FB685B8DCD
:10173C009BB2013B9AB2FB685A8562B600BFFB684C
:10174C001B681A69FB685B6AD2B21A70FB685B6A29
:10175C005A1CFB685A62FB681B8D013B9AB2FB68F2
:10176C001A85FB685B8D9BB2013B9AB2FB685A856C
:10177C00EEE07B6A00933B6B00228149F86800F035
:10178C0055FA0346002B01D00123F5E0FB681B68DA
:10179C001A68FB681B6822F480621A6072B600BF7C
:1017AC00FB681B681A69FB685B6AD2B21A70FB682B
:1017BC005B6A5A1CFB685A62FB681B8D013B9AB230
:1017CC00FB681A85FB685B8D9BB2013B9AB2FB6888
:1017DC005A856C4B1B68DB086B4AA2FB03231A0A65
:1017EC0013469B001344DA00D31A3B623B6A013B5D
:1017FC003B623B6A002B18D1FB6800221A63FB6822
:10180C00202283F83D20FB68002283F83E20FB68F1
:10181C001B6C43F02002FB681A6462B600BFFB68C5
:10182C00002283F83C200123A6E0FB681B685B695F
:10183C0003F00403042BD9D1FB681B681A68FB68FE
:10184C001B6842F400721A60FB681B681A69FB681B
:10185C005B6AD2B21A70FB685B6A5A1CFB685A62EC
:10186C00FB681B8D013B9AB2FB681A85FB685B8D8C
:10187C009BB2013B9AB2FB685A8562B600BFFB680B
:10188C001B681A69FB685B6AD2B21A70FB685B6AE8
:10189C005A1CFB685A62FB681B8D013B9AB2FB68B1
:1018AC001A85FB685B8D9BB2013B9AB2FB685A852B
:1018BC004EE07A6A396BF86800F062FB0346002B45
:1018CC0001D0012358E0FB681B681A69FB685B6A4E
:1018DC00D2B21A70FB685B6A5A1CFB685A62FB68CE
:1018EC001B8D013B9AB2FB681A85FB685B8D9BB222
:1018FC00013B9AB2FB685A85FB681B685B6903F075
:10190C000403042B24D1FB681B8D032B07D1FB682C
:10191C001B681A68FB681B6822F480621A60FB68FB
:10192C001B681A69FB685B6AD2B21A70FB685B6A47
:10193C005A1CFB685A62FB681B8D013B9AB2FB6810
:10194C001A85FB685B8D9BB2013B9AB2FB685A858A
:10195C00FB681B8D002B7FF488AEFB68202283F87C
:10196C003D20FB68002283F83E20FB68002283F8B0
:10197C003C20002300E0022318462837BD4680BDDA
:10198C00040001000000002089B5F81480B588B06F
:10199C0002AFF8607A603B600B467B81FB68DB6AC8
:1019AC007B617B69082B06D07B69012B03D07B699B
:1019BC0013F5803F08D1FB681B681A68FB681B682D
:1019CC0042F480721A600BE0FB681B6B122B07D180
:1019DC00FB681B681A68FB681B6842F480721A600B
:1019EC003B6800937B6800224FF00111F86800F00F
:1019FC001DF90346002B0DD0FB681B681B6803F414
:101A0C008073B3F5807F03D1FB684FF400721A64C6
:101A1C00032335E0FB681B69B3F5804F08D17B8944
:101A2C00DBB21A46FB681B6802F0FE021A611BE06F
:101A3C007B89DB11DBB203F00603DBB263F00F032F
:101A4C00DAB2FB681B681A613B687A680E49F86861
:101A5C0000F066F90346002B01D0012310E07B89CE
:101A6C00DAB2FB681B681A613B687A680749F86848
:101A7C0000F056F90346002B01D0012300E00023AF
:101A8C0018461837BD4680BD080001000200010051
:101A9C0080B588B002AFF8607A603B600B467B8102
:101AAC00FB68DB6A7B61FB681B681A68FB681B6858
:101ABC0042F480621A607B69082B06D07B69012B8B
:101ACC0003D07B6913F5803F08D1FB681B681A684B
:101ADC00FB681B6842F480721A600BE0FB681B6B9E
:101AEC00112B07D1FB681B681A68FB681B6842F452
:101AFC0080721A603B6800937B6800224FF00111E2
:101B0C00F86800F093F80346002B0DD0FB681B68B7
:101B1C001B6803F48073B3F5807F03D1FB684FF42B
:101B2C0000721A64032379E0FB681B69B3F5804FDC
:101B3C0008D17B89DBB243F00103DAB2FB681B6886
:101B4C001A615FE07B89DB11DBB203F00603DBB2C9
:101B5C0063F00F03DAB2FB681B681A613B687A68A2
:101B6C003049F86800F0DCF80346002B01D0012363
:101B7C0054E07B89DAB2FB681B681A613B687A68AF
:101B8C002949F86800F0CCF80346002B01D001235A
:101B9C0044E000233B61FB681B685B693B61FB68AD
:101BAC001B689B693B613B69FB681B681A68FB6897
:101BBC001B6842F480721A603B6800937B680022B9
:101BCC004FF00111F86800F031F80346002B0DD0EE
:101BDC00FB681B681B6803F48073B3F5807F03D12B
:101BEC00FB684FF400721A64032317E07B89DB1146
:101BFC00DBB203F00603DBB263F00E03DAB2FB6870
:101C0C001B681A613B687A680749F86800F088F825
:101C1C000346002B01D0012300E00023184618379F
:101C2C00BD4680BD080001000200010080B584B0F3
:101C3C0000AFF860B9603B601346FB7148E03B684D
:101C4C00B3F1FF3F44D0FEF733FF0246BB69D31A12
:101C5C003A689A4202D33B68002B39D1BB681B0C03
:101C6C00DBB2012B0DD1FB681B685B69DA43BB68E7
:101C7C0013409BB2002B0CBF01230023DBB21A468E
:101C8C000CE0FB681B689B69DA43BB6813409BB292
:101C9C00002B0CBF01230023DBB21A46FB799A42BE
:101CAC0016D1FB6800221A63FB68202283F83D20C2
:101CBC00FB68002283F83E20FB681B6C43F020027B
:101CCC00FB681A64FB68002283F83C20012323E0A4
:101CDC00BB681B0CDBB2012B0DD1FB681B685B696D
:101CEC00DA43BB6813409BB2002B0CBF01230023CB
:101CFC00DBB21A460CE0FB681B689B69DA43BB68D5
:101D0C0013409BB2002B0CBF01230023DBB21A46FD
:101D1C00FB799A4293D0002318461037BD4680BDFC
:101D2C0080B584B000AFF860B9607A603B6071E058
:101D3C00FB681B685B6903F48063B3F5806F23D188
:101D4C00FB681B681A68FB681B6842F400721A6017
:101D5C00FB681B686FF480625A61FB6800221A638F
:101D6C00FB68202283F83D20FB68002283F83E208C
:101D7C00FB681B6C43F00402FB681A64FB680022CE
:101D8C0083F83C20012367E07B68B3F1FF3F41D02F
:101D9C00FEF78EFE02463B68D31A7A689A4202D34B
:101DAC007B68002B36D1BB681B0CDBB2012B0CD132
:101DBC00FB681B685B69DA43BB6813409BB2002B62
:101DCC0014BF01230023DBB20BE0FB681B689B698B
:101DDC00DA43BB6813409BB2002B14BF01230023D2
:101DEC00DBB2002B16D0FB6800221A63FB682022A2
:101DFC0083F83D20FB68002283F83E20FB681B6CB7
:101E0C0043F02002FB681A64FB68002283F83C2034
:101E1C00012321E0BB681B0CDBB2012B0CD1FB684E
:101E2C001B685B69DA43BB6813409BB2002B14BF81
:101E3C0001230023DBB20BE0FB681B689B69DA43D0
:101E4C00BB6813409BB2002B14BF01230023DBB2F1
:101E5C00002B7FF46DAF002318461037BD4680BDB4
:101E6C0080B584B000AFF860B9607A6034E0F8688F
:101E7C0000F0E3F80346002B01D0012334E0BB68EB
:101E8C00B3F1FF3F28D0FEF713FE02467B68D31A4E
:101E9C00BA689A4202D3BB68002B1DD1FB681B6841
:101EAC005B6903F08003802B16D0FB6800221A6359
:101EBC00FB68202283F83D20FB68002283F83E203B
:101ECC00FB681B6C43F02002FB681A64FB68002261
:101EDC0083F83C20012307E0FB681B685B6903F077
:101EEC008003802BC3D1002318461037BD4680BD1C
:101EFC0080B584B000AFF860B9607A6034E0F868FF
:101F0C0000F09BF80346002B01D0012334E0BB68A2
:101F1C00B3F1FF3F28D0FEF7CBFD02467B68D31A06
:101F2C00BA689A4202D3BB68002B1DD1FB681B68B0
:101F3C005B6903F00403042B16D0FB6800221A63C0
:101F4C00FB68202283F83D20FB68002283F83E20AA
:101F5C00FB681B6C43F02002FB681A64FB680022D0
:101F6C0083F83C20012307E0FB681B685B6903F0E6
:101F7C000403042BC3D1002318461037BD4680BD83
:101F8C0080B584B000AFF860B9607A6049E0FB6856
:101F9C001B685B6903F01003102B19D1FB681B68DD
:101FAC006FF010025A61FB6800221A63FB68202252
:101FBC0083F83D20FB68002283F83E20FB681A6CF6
:101FCC00FB681A64FB68002283F83C20012330E094
:101FDC00FEF76EFD02467B68D31ABA689A4202D3AA
:101FEC00BB68002B1DD1FB681B685B6903F04003C9
:101FFC00402B16D0FB6800221A63FB68202283F862
:10200C003D20FB68002283F83E20FB681B6C43F0EC
:10201C002002FB681A64FB68002283F83C20012331
:10202C0007E0FB681B685B6903F04003402BAED1F3
:10203C00002318461037BD4680BD80B483B000AF76
:10204C0078607B681B685B6903F48063B3F5806F11
:10205C001BD17B681B686FF480625A617B6800221D
:10206C001A637B68202283F83D207B68002283F86A
:10207C003E207B681B6C43F004027B681A647B680F
:10208C00002283F83C20012300E0002318460C3783
:10209C00BD4680BC7047F0B58BB006AF78607B68EE
:1020AC00002B01D10123F1E07B6893F8A932DBB25C
:1020BC00002B06D17B68002283F8A822786806F0F2
:1020CC00F1FA7B68032283F8A9227B681B68184607
:1020DC0002F026FA7B681B683B607E686D4606F151
:1020EC0010040FCC0FC523682B60331D0ECB386842
:1020FC0002F0F0F90346002B05D07B68022283F82E
:10210C00A9220123C2E07B681B680021184602F05B
:10211C0021FA0023FB7340E0FB7B79685A1C1346C1
:10212C009B001344DB000B44013301221A70FB7B30
:10213C0079685A1C13469B001344DB000B44FA7B52
:10214C001A70FB7B79685A1C13469B001344DB0006
:10215C000B44033300221A70FA7B796813469B00F8
:10216C001344DB000B44383300221A60FA7B796885
:10217C0013469B001344DB000B443C3300221A60D3
:10218C00FA7B796813469B001344DB000B44403305
:10219C0000221A60FB7B0133FB73FA7B7B685B6864
:1021AC009A42B9D30023FB7344E0FA7B7968134657
:1021BC009B001344DB000B4403F2691300221A70DA
:1021CC00FA7B796813469B001344DB000B4403F540
:1021DC00B473FA7B1A70FA7B796813469B0013442C
:1021EC00DB000B4403F26B1300221A70FA7B796844
:1021FC0013469B001344DB000B4403F5BC73002215
:10220C001A60FA7B796813469B001344DB000B447D
:10221C0003F5BE7300221A60FA7B796813469B00A3
:10222C001344DB000B4403F5C07300221A60FB7BE4
:10223C000133FB73FA7B7B685B689A42B5D37B688E
:10224C001B683B607E686D4606F110040FCC0FC511
:10225C0023682B60331D0ECB386802F087F90346D8
:10226C00002B05D07B68022283F8A92201230DE004
:10227C007B68002283F824207B68012283F8A92242
:10228C007B681B68184604F008FC002318461437BA
:10229C00BD46F0BD80B582B000AF78607B6893F826
:1022AC00A832012B01D1022316E07B68012283F8AE
:1022BC00A8227B681B68184602F01CF9012178687B
:1022CC0006F063FC7B681B68184604F0DCFB7B683B
:1022DC00002283F8A822002318460837BD4680BD8B
:1022EC0080B588B000AF78607B681B68184604F036
:1022FC00DEFBB861BB6903F40043002B03D07868A4
:10230C0000F01BFB19E1BB6903F48063002B13D0B5
:10231C007B681B68B3F844309AB27B681B6822F464
:10232C00806292B2A3F84420786806F036FA002155
:10233C00786800F005F900E1BB6903F48043002BD9
:10234C000CD07B681B68B3F844309AB27B681B686E
:10235C0022F4804292B2A3F84420EEE0BB6903F46D
:10236C000053002B0CD07B681B68B3F844309AB236
:10237C007B681B6822F4005292B2A3F84420DCE084
:10238C00BB6903F48053002B27D07B681B68B3F820
:10239C0040309AB27B681B6822F0040292B2A3F818
:1023AC0040207B681B68B3F840309AB27B681B688E
:1023BC0022F0080292B2A3F84020786806F026FAC0
:1023CC007B681B68B3F844309AB27B681B6822F4B4
:1023DC00805292B2A3F84420AFE0BB6903F40063CF
:1023EC00002B00F083800023FB7710E07B681B68D8
:1023FC001A46FB7F9B001A44FB7F128892B25B004B
:10240C0020333B4423F8182CFB7F0133FB77FB7FF5
:10241C00072BEBD97B681B68B3F840309AB27B680A
:10242C001B6842F0010292B2A3F840207B681B6843
:10243C00B3F840309AB27B681B6822F0010292B26A
:10244C00A3F8402000BF7B681B68B3F844309BB2F4
:10245C0003F48063002BF6D07B681B68B3F8443020
:10246C009AB27B681B6822F4806292B2A3F8442073
:10247C000023FB770FE0FB7F7A6812681146FA7F26
:10248C0092000A445B0020333B4433F8183C138021
:10249C00FB7F0133FB77FB7F072BECD97B681B6839
:1024AC00B3F840309AB27B681B6842F0080292B2D3
:1024BC00A3F840207B681B68B3F844309AB27B6861
:1024CC001B6822F4006292B2A3F844207B681B685C
:1024DC00B3F840309AB27B681B6842F0040292B2A7
:1024EC00A3F84020786806F077F926E0BB6903F47E
:1024FC000073002B0FD07B681B68B3F844309AB282
:10250C007B681B6822F4007292B2A3F844207868AE
:10251C0006F035F911E0BB6903F48073002B0CD085
:10252C007B681B68B3F844309AB27B681B6822F452
:10253C00807292B2A3F8442000BF2037BD4680BD04
:10254C0080B582B000AF78600B46FB707B6893F867
:10255C00A832012B01D1022313E07B68012283F8FE
:10256C00A8227B68FA7883F824207B681B68FA78A9
:10257C001146184604F074FA7B68002283F8A822EE
:10258C00002318460837BD4680BD80B584B000AF27
:10259C007860084611461A460346FB700B463B8092
:1025AC001346BB700023FB7297F90330002B0EDA35
:1025BC00FB7803F007035A1C13469B001344DB0003
:1025CC007A681344FB60FB6801225A700EE0FB78BA
:1025DC0003F0070213469B001344DB0003F5B473AE
:1025EC007A681344FB60FB6800225A70FB7803F096
:1025FC000703DAB2FB681A703A88FB681A61FB6849
:10260C00BA78DA70BB78022B02D1FB6800221A71FF
:10261C007B6893F8A832012B01D102230EE07B6872
:10262C00012283F8A8227B681B68F968184601F020
:10263C00BDFF7B68002283F8A822FB7A184610376E
:10264C00BD4680BD80B584B000AF78600B46FB7092
:10265C0097F90330002B0EDAFB7803F007035A1CB2
:10266C0013469B001344DB007A681344FB60FB6841
:10267C0001225A700EE0FB7803F0070213469B0010
:10268C001344DB0003F5B4737A681344FB60FB68F6
:10269C0000225A70FB7803F00703DAB2FB681A7059
:1026AC007B6893F8A832012B01D102230EE07B68E2
:1026BC00012283F8A8227B681B68F968184602F08F
:1026CC0035FB7B68002283F8A822002318461037BC
:1026DC00BD4680BD80B586B000AFF8607A603B60C7
:1026EC000B46FB72FB7A03F0070213469B00134464
:1026FC00DB0003F5B473FA6813447B617B697A6879
:10270C005A617B693A689A617B690022DA617B695C
:10271C0000225A70FB7A03F00703DAB27B691A7055
:10272C00FB681B687969184602F0ECFC002318461C
:10273C001837BD4680BD80B483B000AF78600B46BF
:10274C00FB70FB7803F00702796813469B00134477
:10275C00DB000B4403F5C2731B6818460C37BD46EF
:10276C0080BC704780B586B000AFF8607A603B6083
:10277C000B46FB72FB7A03F007035A1C13469B00B3
:10278C001344DB00FA6813447B617B697A685A61F5
:10279C007B693A689A617B69012283F824207B6902
:1027AC003A681A627B690022DA617B6901225A70ED
:1027BC00FB7A03F00703DAB27B691A70FB681B68BB
:1027CC007969184602F09EFC002318461837BD465E
:1027DC0080BD80B584B000AF78600B46FB70FB7891
:1027EC0003F007027B685B689A4201D901234CE035
:1027FC0097F90330002B0EDAFB7803F007035A1C11
:10280C0013469B001344DB007A681344FB60FB689F
:10281C0001225A700CE0FA7813469B001344DB003B
:10282C0003F5B4737A681344FB60FB6800225A709A
:10283C00FB6801229A70FB7803F00703DAB2FB689D
:10284C001A707B6893F8A832012B01D102231CE08B
:10285C007B68012283F8A8227B681B68F9681846FC
:10286C0004F001F8FB7803F00703002B08D17B6818
:10287C001A687B6803F52C731946104604F026F988
:10288C007B68002283F8A822002318461037BD4627
:10289C0080BD80B584B000AF78600B46FB70FB78D0
:1028AC0003F00F027B685B689A4201D9012340E078
:1028BC0097F90330002B0EDAFB7803F007035A1C50
:1028CC0013469B001344DB007A681344FB60FB68DF
:1028DC0001225A700EE0FB7803F0070213469B00AE
:1028EC001344DB0003F5B4737A681344FB60FB6894
:1028FC0000225A70FB6800229A70FB7803F00703E1
:10290C00DAB2FB681A707B6893F8A832012B01D1FC
:10291C0002230EE07B68012283F8A8227B681B68E7
:10292C00F968184603F0EFFF7B68002283F8A822B1
:10293C00002318461037BD4680BD80B596B000AF59
:10294C007860BEE37B681B68B3F84430A7F84E3060
:10295C00B7F84E30DBB203F00F0387F84D3097F821
:10296C004D30002B40F07881B7F84E3003F0100357
:10297C00002B51D17B681B681B889BB223F4E1436D
:10298C0023F07003FB817B681A68FB896FEA434371
:10299C006FEA53439BB213807B6828337B657B685B
:1029AC001B68B3F850309BB21A467B6D1B78DB006A
:1029BC00134402335B007A681268134403F5806396
:1029CC001B88C3F309027B6DDA617B6D5A697B6DE1
:1029DC00DB691A447B6D5A610021786805F0B5FEFD
:1029EC007B6893F82430DBB2002B00F06A837B6D9C
:1029FC009B69002B40F065837B6893F82430DBB235
:102A0C0063F07F03DAB27B681B68A3F84C207B6809
:102A1C00002283F8242054E37B6803F5B4737B65B0
:102A2C007B681B681B88A7F84A30B7F84A3003F458
:102A3C000063002B34D07B681B68B3F850309BB21A
:102A4C001A467B6D1B78DB00134406335B007A68F7
:102A5C001268134403F580631B88C3F309027B6D72
:102A6C00DA617B6818687B6803F52C717B6DDA88FA
:102A7C007B6DDB699BB204F079F87B681B681B8863
:102A8C009AB240F68F7313403B827B681B683A8A7C
:102A9C0042F0800292B21A80786805F029FE10E3A9
:102AAC00B7F94A30002B80F20C837B681B681B88BB
:102ABC009AB240F68F731340FB837B681B68FA8BCA
:102ACC0042F0800292B21A807B681B68B3F85030D7
:102ADC009BB21A467B6D1B78DB00134406335B00FC
:102AEC007A681268134403F580631B88C3F30902E8
:102AFC007B6DDA617B6DDB69002B19D07B6D5B69BB
:102B0C00002B15D07B6818687B6D59697B6DDA8852
:102B1C007B6DDB699BB204F029F87B6D5A697B6D88
:102B2C00DB691A447B6D5A610021786805F0F2FD6F
:102B3C007B681B681B88A7F84A30B7F84A3003F447
:102B4C000063002B40F0BD82B7F84A3003F44053C9
:102B5C00B3F5405F00F0B5827B681B68BB617B6896
:102B6C001B68B3F850309BB21A46BB691344BB6167
:102B7C00BB6903F20C437B617B691B889BB2C3F37B
:102B8C0009039AB27B691A807B6D1B693E2B1DD998
:102B9C007B6D1B695B097B647B6D1B6903F01F03F9
:102BAC00002B02D17B6C013B7B647B691B889AB246
:102BBC007B6C9BB29B029BB213439BB26FEA434369
:102BCC006FEA53439AB27B691A8026E07B6D1B69CE
:102BDC00002B0AD17B691B889BB26FEA43436FEAD7
:102BEC0053439AB27B691A8017E07B6D1B695B08B3
:102BFC007B647B6D1B6903F00103002B02D07B6CA3
:102C0C0001337B647B691B889AB27B6C9BB29B0201
:102C1C009BB213439AB27B691A807B681B681B8832
:102C2C009BB223F4804323F070037B827B8A83F472
:102C3C0080537B827B8A83F400537B827B681A6887
:102C4C007B8A43F07F4343F47F0343F4004343F018
:102C5C0080039BB2138034E27B681B681A4697F89A
:102C6C004D309B0013441B88A7F84A30B7F94A3003
:102C7C00002B80F2FC807B681B681A4697F84D305D
:102C8C009B0013441B889AB240F68F731340A7F82D
:102C9C0048307B681B681A4697F84D309B001344EC
:102CAC00B7F8482042F0800292B21A8097F84D2073
:102CBC0013469B001344DB0003F5B4737A6813448A
:102CCC007B657B6D1B7B002B25D17B681B68B3F868
:102CDC0050309BB21A467B6D1B78DB0013440633D5
:102CEC005B007A681268134403F580631B88C3F396
:102CFC000903A7F85030B7F85030002B00F0928041
:102D0C007B6818687B6D59697B6DDA88B7F8503031
:102D1C0003F02CFF86E07B6DDB78022B0AD1B7F831
:102D2C004A301A46796D786800F0D9F90346A7F84D
:102D3C00503077E07B681B681A467B6D1B789B00D4
:102D4C0013441B889BB223F4E04323F07003A7F8D1
:102D5C0052307B681B681A467B6D1B789B001A44AB
:102D6C00B7F8523043F07F4343F47F0343F40043FE
:102D7C0043F0C0039BB213807B681B681A467B6DC3
:102D8C001B789B0013441B889BB203F48043002BDD
:102D9C0024D07B681B68B3F850309BB21A467B6D0D
:102DAC001B78DB00134402335B007A68126813440F
:102DBC0003F580631B88C3F30903A7F85030B7F8F9
:102DCC005030002B2ED07B6818687B6D59697B6D59
:102DDC001A89B7F8503003F0C9FE23E07B681B68F2
:102DEC00B3F850309BB21A467B6D1B78DB00134452
:102DFC0006335B007A681268134403F580631B8802
:102E0C00C3F30903A7F85030B7F85030002B09D0A2
:102E1C007B6818687B6D59697B6D5A89B7F850309F
:102E2C0003F0A4FE7B6DDA69B7F850301A447B6D61
:102E3C00DA617B6D5A69B7F850301A447B6D5A6170
:102E4C007B6D9B69002B05D0B7F850207B6D1B69FF
:102E5C009A4206D27B6D1B781946786805F05AFCAD
:102E6C0005E07B681B68796D184602F04BF9B7F8E2
:102E7C004A3003F08003002B00F0238197F84D308B
:102E8C005A1C13469B001344DB007A6813447B6581
:102E9C007B681B681A4697F84D309B0013441B88BF
:102EAC009BB223F4E14323F07003A7F842307B6814
:102EBC001B681A4697F84D309B001A44B7F84230FD
:102ECC006FEA43436FEA53439BB213807B6DDB780D
:102EDC00012B40F0A2807B6D00229A617B6D1B7BE5
:102EEC00002B00F09380B7F84A3003F04003002B1E
:102EFC0046D07B6D5B78002B26D17B681B687B6290
:102F0C007B681B68B3F850309BB21A467B6A13443B
:102F1C007B627B6D1B781A017B6A134403F20443BA
:102F2C003B623B6A1B889BB2C3F309039AB23B6AB0
:102F3C001A803B6A1B889BB26FEA43436FEA534388
:102F4C009AB23B6A1A8061E07B6D5B78012B5DD194
:102F5C007B681B68FB627B681B68B3F850309BB2C4
:102F6C001A46FB6A1344FB627B6D1B781A01FB6AE1
:102F7C00134403F20443BB62BB6A00221A8045E08F
:102F8C007B681B68FB637B6D5B78002B26D17B68B1
:102F9C001B687B637B681B68B3F850309BB21A4686
:102FAC007B6B13447B637B6D1B781A017B6B134427
:102FBC0003F20C433B633B6B1B889BB2C3F30903CB
:102FCC009AB23B6B1A803B6B1B889BB26FEA4343F4
:102FDC006FEA53439AB23B6B1A8017E07B6D5B78B8
:102FEC00012B13D17B681B68B3F850309BB21A4687
:102FFC00FB6B1344FB637B6D1B781A01FB6B134457
:10300C0003F20C43BB63BB6B00221A807B6D1B78F5
:10301C001946786805F099FB53E0B7F84A3003F489
:10302C008073002B46D17B681B68B3F850309BB281
:10303C001A467B6D1B78DB00134402335B007A6805
:10304C001268134403F580631B88C3F30903A7F8C4
:10305C0040307B6D9A69B7F840309A4207D97B6D46
:10306C009A69B7F84030D21A7B6D9A6102E07B6D99
:10307C0000229A617B6D9B69002B06D17B6D1B78BE
:10308C001946786805F061FB1BE07B6D5A69B7F84F
:10309C0040301A447B6D5A617B6DDA69B7F8403069
:1030AC001A447B6DDA617B681B68796D184602F0F7
:1030BC0029F806E0B7F84A301A46796D786800F0BE
:1030CC001BF97B681B68B3F844309BB21BB2002B16
:1030DC00FFF638AC002318465837BD4680BD80B586
:1030EC0088B000AFF860B9601346FB80FB8803F42E
:1030FC008043002B7ED0FB681B68B3F850309BB22A
:10310C001A46BB681B78DB00134402335B00FA6879
:10311C001268134403F580631B88C3F309037B8394
:10312C00BB689A697B8B9A4206D3BB689A697B8B86
:10313C00D21ABB689A6102E0BB6800229A61BB6834
:10314C009B69002B23D1FB681B681A46BB681B7854
:10315C009B0013441B889BB223F4804323F0700321
:10316C003B833B8B83F400533B83FB681B681A4601
:10317C00BB681B789B001A443B8B43F07F4343F4A2
:10318C007F0343F4004343F080039BB21380FB881E
:10319C0003F04003002B1FD0FB681B681A46BB686A
:1031AC001B789B0013441B889BB223F4E04323F051
:1031BC007003FB82FB681B681A46BB681B789B007C
:1031CC001A44FB8A43F07F4343F47F0343F40043E8
:1031DC0043F0C0039BB213807B8B002B00F08780E5
:1031EC00FB681868BB685969BB681A897B8B03F04C
:1031FC00BDFC7CE0FB681B68B3F850309BB21A46F0
:10320C00BB681B78DB00134406335B00FA6812685A
:10321C00134403F580631B88C3F309037B83BB68EA
:10322C009A697B8B9A4206D3BB689A697B8BD21ABC
:10323C00BB689A6102E0BB6800229A61BB689B691B
:10324C00002B23D1FB681B681A46BB681B789B00BC
:10325C0013441B889BB223F4804323F07003FB833D
:10326C00FB8B83F40053FB83FB681B681A46BB681B
:10327C001B789B001A44FB8B43F07F4343F47F0382
:10328C0043F4004343F080039BB21380FB8803F0AC
:10329C004003002B1FD1FB681B681A46BB681B78C8
:1032AC009B0013441B889BB223F4E04323F0700370
:1032BC00BB83FB681B681A46BB681B789B001A44CF
:1032CC00BB8B43F07F4343F47F0343F4004343F051
:1032DC00C0039BB213807B8B002B08D0FB68186853
:1032EC00BB685969BB685A897B8B03F03FFC7B8BAD
:1032FC0018462037BD4680BD80B5A4B000AFF8603D
:10330C00B9601346FB80FB8803F04003002B00F0F0
:10331C00DD81FB681B68B3F850309BB21A46BB6862
:10332C001B78DB00134402335B00FA681268134409
:10333C0003F580631B88C3F30903A7F88630BB68C9
:10334C009A69B7F886309A4207D9BB689A69B7F878
:10335C008630D21ABB689A6102E0BB6800229A617F
:10336C00BB689B69002B40F0B980BB685B78002B75
:10337C0026D1FB681B68FB62FB681B68B3F85030F6
:10338C009BB21A46FB6A1344FB62BB681B781A019A
:10339C00FB6A134403F20443BB62BB6A1B889BB2F7
:1033AC00C3F309039AB2BB6A1A80BB6A1B889BB22F
:1033BC006FEA43436FEA53439AB2BB6A1A801AE02E
:1033CC00BB685B78012B16D1FB681B687B63FB68C1
:1033DC001B68B3F850309BB21A467B6B13447B636B
:1033EC00BB681B781A017B6B134403F204433B63E9
:1033FC003B6B00221A80FB681B687B62BB685B78A6
:10340C00002B26D1FB681B68FB61FB681B68B3F8BB
:10341C0050309BB21A46FB691344FB61BB681B78A6
:10342C001A01FB69134403F20C43BB61BB691B8893
:10343C009BB2C3F309039AB2BB691A80BB691B88A0
:10344C009BB26FEA43436FEA53439AB2BB691A804B
:10345C0017E0BB685B78012B13D1FB681B68B3F8D2
:10346C0050309BB21A467B6A13447B62BB681B7854
:10347C001A017B6A134403F20C433B623B6A002241
:10348C001A80BB681B781946F86805F05EF9FB8852
:10349C0003F48043002B00F0FC82FB681B681A4687
:1034AC00BB681B789B0013441B889BB223F4E0433E
:1034BC0023F07003FB82FB681B681A46BB681B7801
:1034CC009B001A44FB8A43F07F4343F47F0343F48D
:1034DC00404343F080039BB21380DAE2FB8803F491
:1034EC008043002B21D0FB681B681A46BB681B78F5
:1034FC009B0013441B889BB223F4E04323F070031E
:10350C00A7F88A30FB681B681A46BB681B789B00BF
:10351C001A44B7F88A3043F07F4343F47F0343F4F3
:10352C00404343F080039BB21380BB6893F8243074
:10353C00012B40F0AE82BB685A69B7F886301A444A
:10354C00BB685A61BB68DA69B7F886301A44BB6845
:10355C00DA61BB681A6ABB681B699A420BD3BB68F9
:10356C001B69C7F88C30BB681A6AD7F88C30D21A32
:10357C00BB681A6217E0BB681B6A002B08D1B7F84E
:10358C008630C7F88C30BB68002283F824200AE010
:10359C00BB68002283F82420BB681B6AC7F88C30F8
:1035AC00BB6800221A62BB685B78002B65D1FB6894
:1035BC001B68FB63FB681B68B3F850309BB21A4660
:1035CC00FB6B1344FB63BB681B781A01FB6B134446
:1035DC0003F20443BB63BB6B1B889BB2C3F30903AD
:1035EC009AB2BB6B1A80D7F88C303E2B1DD9D7F80A
:1035FC008C305B09BB64D7F88C3003F01F03002BB5
:10360C0002D1BB6C013BBB64BB6B1B889AB2BB6C1D
:10361C009BB29B029BB213439BB26FEA43436FEA8C
:10362C0053439AB2BB6B1A8044E0D7F88C30002B12
:10363C000AD1BB6B1B889BB26FEA43436FEA5343BF
:10364C009AB2BB6B1A8035E0D7F88C305B08BB6440
:10365C00D7F88C3003F00103002B02D0BB6C013384
:10366C00BB64BB6B1B889AB2BB6C9BB29B029BB2BC
:10367C0013439AB2BB6B1A801CE0BB685B78012BBE
:10368C0018D1FB681B687B64FB681B68B3F850306F
:10369C009BB21A467B6C13447B64BB681B781A0183
:1036AC007B6C134403F204433B64D7F88C309AB21E
:1036BC003B6C1A80FB681868BB685969BB681A892F
:1036CC00D7F88C309BB203F00CFAE2E1FB681B6874
:1036DC00B3F850309BB21A46BB681B78DB0013441E
:1036EC0006335B00FA681268134403F580631B8889
:1036FC00C3F30903A7F88630BB689A69B7F886301C
:10370C009A4207D3BB689A69B7F88630D21ABB685D
:10371C009A6102E0BB6800229A61BB689B69002B2E
:10372C0040F0C080BB685B78002B26D1FB681B681F
:10373C00FB67FB681B68B3F850309BB21A46FB6FF3
:10374C001344FB67BB681B781A01FB6F134403F22D
:10375C000443BB67BB6F1B889BB2C3F309039AB2CC
:10376C00BB6F1A80BB6F1B889BB26FEA43436FEA37
:10377C0053439AB2BB6F1A801AE0BB685B78012B7B
:10378C0016D1FB681B687B66FB681B68B3F850306E
:10379C009BB21A467B6E13447B66BB681B781A017E
:1037AC007B6E134403F204433B663B6E00221A808B
:1037BC00FB681B687B67BB685B78002B2BD1FB68B5
:1037CC001B68FB66FB681B68B3F850309BB21A464B
:1037DC00FB6E1344FB66BB681B781A01FB6E13442B
:1037EC0003F20C43C7F88030D7F880301B889BB2AB
:1037FC00C3F309039AB2D7F880301A80D7F8803017
:10380C001B889BB26FEA43436FEA53439AB2D7F8D3
:10381C0080301A8017E0BB685B78012B13D1FB68F2
:10382C001B68B3F850309BB21A467B6F13447B670E
:10383C00BB681B781A017B6F134403F20C433B6784
:10384C003B6F00221A80BB681B781946F86804F09D
:10385C007CFFFB8803F48043002B40F01A81FB684B
:10386C001B681A46BB681B789B0013441B889BB2D1
:10387C0023F4E04323F07003A7F88830FB681B683F
:10388C001A46BB681B789B001A44B7F8883043F083
:10389C007F4343F47F0343F4404343F080039BB2E4
:1038AC001380F6E0FB8803F48043002B21D1FB68E6
:1038BC001B681A46BB681B789B0013441B889BB281
:1038CC0023F4E04323F07003A7F84E30FB681B6829
:1038DC001A46BB681B789B001A44B7F84E3043F06D
:1038EC007F4343F47F0343F4404343F080039BB294
:1038FC001380BB6893F82430012B40F0CA80BB685E
:10390C005A69B7F886301A44BB685A61BB68DA69E1
:10391C00B7F886301A44BB68DA61BB681A6ABB68B0
:10392C001B699A420BD3BB681B69C7F88C30BB6808
:10393C001A6AD7F88C30D21ABB681A6217E0BB68C7
:10394C001B6A002B08D1B7F88630C7F88C30BB68DF
:10395C00002283F824200AE0BB681B6AC7F88C306D
:10396C00BB6800221A62BB68002283F82420FB6823
:10397C001B687B65BB685B78002B65D1FB681B689B
:10398C00FB65FB681B68B3F850309BB21A46FB6DA5
:10399C001344FB65BB681B781A01FB6D134403F2DF
:1039AC000C43BB65BB6D1B889BB2C3F309039AB276
:1039BC00BB6D1A80D7F88C303E2B1DD9D7F88C30C4
:1039CC005B09BB66D7F88C3003F01F03002B02D1C8
:1039DC00BB6E013BBB66BB6D1B889AB2BB6E9BB2C8
:1039EC009B029BB213439BB26FEA43436FEA534370
:1039FC009AB2BB6D1A8041E0D7F88C30002B0AD1FB
:103A0C00BB6D1B889BB26FEA43436FEA53439AB278
:103A1C00BB6D1A8032E0D7F88C305B08BB66D7F8E8
:103A2C008C3003F00103002B02D0BB6E0133BB665C
:103A3C00BB6D1B889AB2BB6E9BB29B029BB21343AD
:103A4C009AB2BB6D1A8019E0BB685B78012B15D15B
:103A5C00FB681B68B3F850309BB21A467B6D13445D
:103A6C007B65BB681B781A017B6D134403F20C4316
:103A7C003B65D7F88C309AB23B6D1A80FB6818689E
:103A8C00BB685969BB685A89D7F88C309BB203F074
:103A9C0028F8FB681B681A46BB681B789B0013440C
:103AAC001B889BB223F4E04323F04003BB82BB8A08
:103ABC0083F01003BB82BB8A83F02003BB82FB68BC
:103ACC001B681A46BB681B789B001A44BB8A43F0E0
:103ADC007F4343F47F0343F4004343F080039BB2E2
:103AEC001380002318469037BD4680BD80B487B044
:103AFC0000AFF8607B600B467B8113463B817B8972
:103B0C0003F080039BB2002B0BD07B8903F00703DF
:103B1C005A1C13469B001344DB00FA6813447B6168
:103B2C0009E07A8913469B001344DB0003F5B47358
:103B3C00FA6813447B613B89002B07D17B69002217
:103B4C001A737B689AB27B69DA800BE07B6901227D
:103B5C001A737B689AB27B691A817B681B0C9AB2C8
:103B6C007B695A81002318461C37BD4680BC7047C0
:103B7C0080B586B000AF78607B68002B01D1012343
:103B8C0072E27B681B6803F00103002B00F0878056
:103B9C00924B5B6803F00C03042B0CD08F4B5B68CF
:103BAC0003F00C03082B12D18C4B5B6803F48033AD
:103BBC00B3F5803F0BD1894B1B6803F40033002B0A
:103BCC006CD07B685B68002B68D101234CE27B686E
:103BDC005B68B3F5803F06D1804B1B687F4A43F48A
:103BEC00803313602EE07B685B68002B0CD17B4B21
:103BFC001B687A4A23F480331360784B1B68774A2E
:103C0C0023F4802313601DE07B685B68B3F5A02F61
:103C1C000CD1724B1B68714A43F4802313606F4BB9
:103C2C001B686E4A43F4803313600BE06B4B1B68CC
:103C3C006A4A23F480331360684B1B68674A23F489
:103C4C00802313607B685B68002B13D0FCF730FF7C
:103C5C00386108E0FCF72CFF02463B69D31A642B51
:103C6C0001D9032300E25D4B1B6803F40033002BE6
:103C7C00F0D014E0FCF71CFF386108E0FCF718FFEB
:103C8C0002463B69D31A642B01D90323ECE1534B55
:103C9C001B6803F40033002BF0D100E000BF7B68FD
:103CAC001B6803F00203002B63D04C4B5B6803F0E2
:103CBC000C03002B0BD0494B5B6803F00C03082B57
:103CCC001CD1464B5B6803F48033002B16D1434B5D
:103CDC001B6803F00203002B05D07B681B69012BCA
:103CEC0001D00123C0E13D4B1B6823F0F8027B6837
:103CFC005B69DB00394913430B603AE07B681B6955
:103D0C00002B20D0364B01221A60FCF7D1FE386113
:103D1C0008E0FCF7CDFE02463B69D31A022B01D911
:103D2C000323A1E12D4B1B6803F00203002BF0D001
:103D3C002A4B1B6823F0F8027B685B69DB00274980
:103D4C0013430B6015E0264B00221A60FCF7B0FE03
:103D5C00386108E0FCF7ACFE02463B69D31A022B33
:103D6C0001D9032380E11D4B1B6803F00203002BD8
:103D7C00F0D17B681B6803F00803002B3AD07B68FA
:103D8C009B69002B19D0174B01221A60FCF790FE8F
:103D9C00386108E0FCF78CFE02463B69D31A022B13
:103DAC0001D9032360E10D4B5B6A03F00203002B86
:103DBC00F0D0012000F0BAFA1CE00A4B00221A6085
:103DCC00FCF776FE38610FE0FCF772FE02463B69A9
:103DDC00D31A022B08D9032346E100BF001002407E
:103DEC000000424280044242924B5B6A03F00203A1
:103DFC00002BE9D17B681B6803F00403002B00F057
:103E0C00A6800023FB758B4BDB6903F08053002BE2
:103E1C000DD1884BDB69874A43F08053D361854BC6
:103E2C00DB6903F08053BB60BB680123FB75824BDD
:103E3C001B6803F48073002B18D17F4B1B687E4AE0
:103E4C0043F480731360FCF733FE386108E0FCF731
:103E5C002FFE02463B69D31A642B01D9032303E1DD
:103E6C00754B1B6803F48073002BF0D07B68DB6808
:103E7C00012B06D16F4B1B6A6E4A43F00103136290
:103E8C002DE07B68DB68002B0CD16A4B1B6A694AFE
:103E9C0023F001031362674B1B6A664A23F0040389
:103EAC0013621CE07B68DB68052B0CD1614B1B6A31
:103EBC00604A43F0040313625E4B1B6A5D4A43F095
:103ECC00010313620BE05B4B1B6A5A4A23F001039C
:103EDC001362584B1B6A574A23F0040313627B6826
:103EEC00DB68002B15D0FCF7E3FD38610AE0FCF72A
:103EFC00DFFD02463B69D31A41F28832934201D965
:103F0C000323B1E04B4B1B6A03F00203002BEED0F2
:103F1C0014E0FCF7CDFD38610AE0FCF7C9FD024660
:103F2C003B69D31A41F28832934201D903239BE0B7
:103F3C00404B1B6A03F00203002BEED1FB7D012BDF
:103F4C0005D13C4BDB693B4A23F08053D3617B6842
:103F5C00DB69002B00F08780364B5B6803F00C03A9
:103F6C00082B61D07B68DB69022B46D1334B0022D6
:103F7C001A60FCF79DFD386108E0FCF799FD0246DC
:103F8C003B69D31A022B01D903236DE0294B1B6823
:103F9C0003F00073002BF0D17B681B6AB3F5803FF4
:103FAC0008D1244B5B6823F400327B689B68214961
:103FBC0013434B601F4B5B6823F474127B68196AC4
:103FCC007B685B6A0B431B4913434B601B4B012201
:103FDC001A60FCF76DFD386108E0FCF769FD0246DC
:103FEC003B69D31A022B01D903233DE0114B1B680B
:103FFC0003F00073002BF0D035E0104B00221A6058
:10400C00FCF756FD386108E0FCF752FD02463B69AF
:10401C00D31A022B01D9032326E0064B1B6803F0AD
:10402C000073002BF0D11EE07B68DB69012B07D1FC
:10403C00012319E000100240007000406000424271
:10404C000B4B5B68FB60FB6803F480327B681B6A7C
:10405C009A4206D1FB6803F470127B685B6A9A4241
:10406C0001D0012300E0002318461837BD4680BD5F
:10407C000010024080B584B000AF786039607B6876
:10408C00002B01D10123D0E06A4B1B6803F007031E
:10409C003A689A4210D9674B1B6823F007026549AE
:1040AC003B6813430B60634B1B6803F007033A68D0
:1040BC009A4201D00123B8E07B681B6803F002032D
:1040CC00002B20D07B681B6803F00403002B05D069
:1040DC00594B5B68584A43F4E06353607B681B6838
:1040EC0003F00803002B05D0534B5B68524A43F492
:1040FC0060535360504B5B6823F0F0027B689B6805
:10410C004D4913434B607B681B6803F00103002B84
:10411C0040D07B685B68012B07D1474B1B6803F4CD
:10412C000033002B15D101237FE07B685B68022BE9
:10413C0007D1414B1B6803F00073002B09D10123FD
:10414C0073E03D4B1B6803F00203002B01D10123EC
:10415C006BE0394B5B6823F003027B685B68364984
:10416C0013434B60FCF7A4FCF8600AE0FCF7A0FCDE
:10417C000246FB68D31A41F28832934201D90323D9
:10418C0053E02D4B5B6803F00C027B685B689B0073
:10419C009A42EBD1274B1B6803F007033A689A420B
:1041AC0010D2244B1B6823F0070222493B681343AF
:1041BC000B60204B1B6803F007033A689A4201D04E
:1041CC00012332E07B681B6803F00403002B08D04A
:1041DC00194B5B6823F4E0627B68DB681649134378
:1041EC004B607B681B6803F00803002B09D0124B53
:1041FC005B6823F460527B681B69DB000E49134338
:10420C004B6000F021F802460B4B5B681B0903F076
:10421C000F030A49CB5C22FA03F3094A1360094BDA
:10422C001B681846FCF702FC002318461037BD46E5
:10423C0080BD00BF002002400010024064960008C0
:10424C00000000200400002080B487B000AF0023E1
:10425C00FB600023BB6000237B6100237B60002399
:10426C003B611E4B5B68FB60FB6803F00C03042B8B
:10427C0002D0082B03D027E0194B3B6127E0FB68E9
:10428C009B0C03F00F03174AD35C7B60FB6803F4B1
:10429C008033002B10D0114B5B685B0C03F00103D7
:1042AC00114AD35CBB607B680D4A03FB02F2BB680E
:1042BC00B2FBF3F37B6104E07B680C4A02FB03F373
:1042CC007B617B693B6102E0054B3B6100BF3B6955
:1042DC0018461C37BD4680BC704700BF001002401A
:1042EC0000127A007C9600088C96000800093D00AC
:1042FC0080B400AF024B1B681846BD4680BC7047AB
:10430C000000002080B500AFFFF7F2FF0246054B1E
:10431C005B681B0A03F007030349CB5C22FA03F327
:10432C00184680BD001002407496000880B485B019
:10433C0000AF78600A4B1B680A4AA2FB03235B0A96
:10434C007A6802FB03F3FB6000BFFB685A1EFA603D
:10435C00002BF9D100BF00BF1437BD4680BC70479D
:10436C0000000020D34D621080B586B000AF78609D
:10437C0000233B610023FB607B681B6803F0010397
:10438C00002B7DD00023FB754F4BDB6903F0805372
:10439C00002B0DD14C4BDB694B4A43F08053D3615E
:1043AC00494BDB6903F08053BB60BB680123FB7591
:1043BC00464B1B6803F48073002B18D1434B1B68CE
:1043CC00424A43F480731360FCF772FB386108E0D7
:1043DC00FCF76EFB02463B69D31A642B01D903230D
:1043EC006DE03A4B1B6803F48073002BF0D0364B16
:1043FC001B6A03F44073FB60FB68002B2ED07B68B8
:10440C005B6803F44073FA689A4227D02E4B1B6A00
:10441C0023F44073FB602E4B01221A602C4B0022BC
:10442C001A60294AFB681362FB6803F00103002B36
:10443C0014D0FCF73DFB38610AE0FCF739FB02466F
:10444C003B69D31A41F28832934201D9032336E0F7
:10445C001D4B1B6A03F00203002BEED01A4B1B6A98
:10446C0023F440727B685B68174913430B62FB7D36
:10447C00012B05D1144BDB69134A23F08053D36114
:10448C007B681B6803F00203002B08D00E4B5B68A3
:10449C0023F440427B689B680B4913434B607B6859
:1044AC001B6803F01003002B08D0074B5B6823F448
:1044BC0080027B68DB68044913434B600023184679
:1044CC001837BD4680BD00BF001002400070004090
:1044DC004004424284B080B483B000AF786007F1EE
:1044EC00140080E80E00002318460C37BD4680BC33
:1044FC0004B0704780B485B000AF78607B68002250
:10450C00A3F844204FF43F43FB60FB689AB27B68EE
:10451C00A3F84020002318461437BD4680BC7047D2
:10452C0080B485B000AF78604FF43F43FB607B688C
:10453C00B3F840309AB2FB689BB2DB439BB213409A
:10454C009AB27B68A3F84020002318461437BD4666
:10455C0080BC704780B483B000AF78600B46FB70B2
:10456C00002318460C37BD4680BC704784B080B41D
:10457C0083B000AF786007F1140080E80E007B6810
:10458C000122A3F840207B680022A3F840207B681E
:10459C000022A3F844207B680022A3F850200023BB
:1045AC0018460C37BD4680BC04B0704780B49DB033
:1045BC0000AF78603960002387F86F307A683B6809
:1045CC001B789B0013441B889BB223F4EC4323F011
:1045DC007003A7F86C303B68DB78032B1FD801A263
:1045EC0052F823F0014600081D4600083346000827
:1045FC000F460008B7F86C3043F40073A7F86C3022
:10460C0012E0B7F86C3043F4C063A7F86C300BE0E1
:10461C00B7F86C3043F48063A7F86C3004E00123E6
:10462C0087F86F3000E000BF7A683B681B789B000E
:10463C001A44B7F86C3043F07F4343F47F0343F4E0
:10464C00004343F080039BB213807A683B681B786D
:10465C009B0013441B889BB223F4E04323F07003AC
:10466C009BB23A6812781343A7F866307A683B68B5
:10467C001B789B001A44B7F8663043F07F4343F431
:10468C007F0343F4004343F080039BB213803B68E9
:10469C001B7B002B40F078813B685B78002B00F093
:1046AC0084807B68BB617B68B3F850309BB21A4640
:1046BC00BB691344BB613B681B781A01BB6913448B
:1046CC0003F580637B613B68DB885B089BB25B0016
:1046DC009AB27B691A807A683B681B789B001344FA
:1046EC001B887B827B8A03F04003002B1BD07A68EB
:1046FC003B681B789B0013441B889BB223F4E0435C
:10470C0023F070033B827A683B681B789B001A4449
:10471C003B8A43F07F4343F47F0343F4004343F06D
:10472C00C0039BB213803B68DB78012B20D07A68E6
:10473C003B681B789B0013441B889BB223F4E0431B
:10474C0023F04003BB81BB8983F02003BB817A68D3
:10475C003B681B789B001A44BB8943F07F4343F4AE
:10476C007F0343F4004343F080039BB21380D5E2F4
:10477C007A683B681B789B0013441B889BB223F41C
:10478C00E04323F04003FB817A683B681B789B0075
:10479C001A44FB8943F07F4343F47F0343F4004303
:1047AC0043F080039BB21380B8E27B683B637B6869
:1047BC00B3F850309BB21A463B6B13443B633B68D7
:1047CC001B781A013B6B134403F58163FB623B6856
:1047DC00DB885B089BB25B009AB2FB6A1A807B6831
:1047EC00BB627B68B3F850309BB21A46BB6A134469
:1047FC00BB623B681B781A01BB6A134403F20C437F
:10480C007B627B6A1B889BB2C3F309039AB27B6AF7
:10481C001A803B681B693E2B1DD93B681B695B09E1
:10482C00BB663B681B6903F01F03002B02D1BB6EF8
:10483C00013BBB667B6A1B889AB2BB6E9BB29B0228
:10484C009BB213439BB26FEA43436FEA53439AB252
:10485C007B6A1A8026E03B681B69002B0AD17B6AB5
:10486C001B889BB26FEA43436FEA53439AB27B6A4D
:10487C001A8017E03B681B695B08BB663B681B69C9
:10488C0003F00103002B02D0BB6E0133BB667B6AC5
:10489C001B889AB2BB6E9BB29B029BB213439AB21B
:1048AC007B6A1A807A683B681B789B0013441B88D0
:1048BC007B847B8C03F48043002B1BD07A683B6891
:1048CC001B789B0013441B889BB223F4E04323F01A
:1048DC0070033B847A683B681B789B001A443B8CC2
:1048EC0043F07F4343F47F0343F4404343F080039E
:1048FC009BB213803B681B78002B24D17A683B68F1
:10490C001B789B0013441B889BB223F4804323F039
:10491C007003BB83BB8B83F48053BB83BB8B83F44F
:10492C000053BB837A683B681B789B001A44BB8B93
:10493C0043F07F4343F47F0343F4004343F080038D
:10494C009BB21380EAE17A683B681B789B001344A6
:10495C001B889BB223F4804323F07003FB83FB8BF7
:10496C0083F40053FB837A683B681B789B001A44E2
:10497C00FB8B43F07F4343F47F0343F4004343F04A
:10498C0080039BB21380C9E13B68DB78022B1ED1FC
:10499C007A683B681B789B0013441B889BB223F4FA
:1049AC00E04323F07003A7F862307A683B681B7809
:1049BC009B001A44B7F8623043F07F4343F47F0303
:1049CC0043F4014343F080039BB213801DE07A68EB
:1049DC003B681B789B0013441B889BB223F4E24377
:1049EC0023F07003A7F864307A683B681B789B004F
:1049FC001A44B7F8643043F07F4343F47F0343F425
:104A0C00004343F080039BB213807B68FB657B689B
:104A1C00B3F850309BB21A46FB6D1344FB653B68F0
:104A2C001B781A01FB6D134403F58063BB653B686F
:104A3C001B895B089BB25B009AB2BB6D1A807B68CA
:104A4C007B657B68B3F850309BB21A467B6D134480
:104A5C007B653B681B781A017B6D134403F58163FE
:104A6C003B653B685B895B089BB25B009AB23B6D14
:104A7C001A803B685B78002B40F093807A683B6827
:104A8C001B789B0013441B88A7F84030B7F84030C4
:104A9C0003F48043002B1BD07A683B681B789B0087
:104AAC0013441B889BB223F4E04323F07003FB8771
:104ABC007A683B681B789B001A44FB8F43F07F435A
:104ACC0043F47F0343F4404343F080039BB21380D1
:104ADC007A683B681B789B0013441B88BB87BB8F91
:104AEC0003F04003002B1BD07A683B681B789B00BB
:104AFC0013441B889BB223F4E04323F070037B87A1
:104B0C007A683B681B789B001A447B8F43F07F4389
:104B1C0043F47F0343F4004343F0C0039BB2138080
:104B2C007A683B681B789B0013441B889BB223F468
:104B3C00804323F070033B873B8F83F480533B8788
:104B4C003B8F83F400533B877A683B681B789B0050
:104B5C001A443B8F43F07F4343F47F0343F40043F9
:104B6C0043F080039BB213807A683B681B789B00F0
:104B7C0013441B889BB223F4E04323F04003FB86D1
:104B8C007A683B681B789B001A44FB8E43F07F438A
:104B9C0043F47F0343F4004343F080039BB2138040
:104BAC00BCE07A683B681B789B0013441B88A7F811
:104BBC004E30B7F84E3003F48043002B1DD07A688A
:104BCC003B681B789B0013441B889BB223F4E04387
:104BDC0023F07003A7F84C307A683B681B789B0075
:104BEC001A44B7F84C3043F07F4343F47F0343F44B
:104BFC00404343F080039BB213807A683B681B7878
:104C0C009B0013441B88A7F84A30B7F84A3003F0CE
:104C1C004003002B1DD07A683B681B789B00134423
:104C2C001B889BB223F4E04323F07003A7F84830B1
:104C3C007A683B681B789B001A44B7F8483043F0FD
:104C4C007F4343F47F0343F4004343F0C0039BB220
:104C5C0013803B68DB78012B24D07A683B681B7887
:104C6C009B0013441B889BB223F4E04323F04003C6
:104C7C00A7F84430B7F8443083F02003A7F8443049
:104C8C007A683B681B789B001A44B7F8443043F0B1
:104C9C007F4343F47F0343F4004343F080039BB210
:104CAC0013801DE07A683B681B789B0013441B88BB
:104CBC009BB223F4E04323F04003A7F846307A6814
:104CCC003B681B789B001A44B7F8463043F07F438F
:104CDC0043F47F0343F4004343F080039BB21380FF
:104CEC007A683B681B789B0013441B889BB223F4A7
:104CFC00804323F07003A7F842307A683B681B7836
:104D0C009B001A44B7F8423043F07F4343F47F03CF
:104D1C0043F4004343F080039BB2138097F86F3049
:104D2C0018467437BD4680BC704700BF80B48DB048
:104D3C0000AF786039603B681B7B002B40F08E80A5
:104D4C003B685B78002B44D07A683B681B789B00EF
:104D5C0013441B88BB81BB8903F04003002B1BD081
:104D6C007A683B681B789B0013441B889BB223F426
:104D7C00E04323F070037B817A683B681B789B00CF
:104D8C001A447B8943F07F4343F47F0343F400438D
:104D9C0043F0C0039BB213807A683B681B789B007E
:104DAC0013441B889BB223F4E04323F040033B8164
:104DBC007A683B681B789B001A443B8943F07F431D
:104DCC0043F47F0343F4004343F080039BB213800E
:104DDC0092E17A683B681B789B0013441B887B82AA
:104DEC007B8A03F48043002B1BD07A683B681B78CA
:104DFC009B0013441B889BB223F4E04323F0700305
:104E0C003B827A683B681B789B001A443B8A43F0D0
:104E1C007F4343F47F0343F4404343F080039BB24E
:104E2C0013807A683B681B789B0013441B889BB2E9
:104E3C0023F4804323F07003FB817A683B681B7872
:104E4C009B001A44FB8943F07F4343F47F0343F4F4
:104E5C00004343F080039BB213804DE13B685B78C9
:104E6C00002B40F0A5807A683B681B789B001344AC
:104E7C001B883B843B8C03F48043002B1BD07A684B
:104E8C003B681B789B0013441B889BB223F4E043C4
:104E9C0023F07003FB837A683B681B789B001A44F1
:104EAC00FB8B43F07F4343F47F0343F4404343F0D5
:104EBC0080039BB213807A683B681B789B00134479
:104ECC001B88BB83BB8B03F04003002B1BD07A6881
:104EDC003B681B789B0013441B889BB223F4E04374
:104EEC0023F070037B837A683B681B789B001A4421
:104EFC007B8B43F07F4343F47F0343F4004343F045
:104F0C00C0039BB213807A683B681B789B001344E8
:104F1C001B889BB223F4E04323F070033B837A6835
:104F2C003B681B789B001A443B8B43F07F4343F454
:104F3C007F0343F4004343F0C0039BB213807A68B1
:104F4C003B681B789B0013441B889BB223F4804363
:104F5C0023F07003FB827A683B681B789B001A4431
:104F6C00FB8A43F07F4343F47F0343F4004343F055
:104F7C0080039BB213807A683B681B789B001344B8
:104F8C001B889BB223F4E04323F04003BB827A6876
:104F9C003B681B789B001A44BB8A43F07F4343F465
:104FAC007F0343F4004343F080039BB21380A3E0E0
:104FBC007A683B681B789B0013441B88FB85FB8D30
:104FCC0003F48043002B1BD07A683B681B789B0052
:104FDC0013441B889BB223F4E04323F07003BB857E
:104FEC007A683B681B789B001A44BB8D43F07F4367
:104FFC0043F47F0343F4404343F080039BB213809C
:10500C007A683B681B789B0013441B887B857B8DDF
:10501C0003F04003002B1BD07A683B681B789B0085
:10502C0013441B889BB223F4E04323F070033B85AD
:10503C007A683B681B789B001A443B8D43F07F4396
:10504C0043F47F0343F4004343F0C0039BB213804B
:10505C007A683B681B789B0013441B889BB223F433
:10506C00E04323F07003FB847A683B681B789B0059
:10507C001A44FB8C43F07F4343F47F0343F44043D7
:10508C0043F080039BB213807A683B681B789B00CB
:10509C0013441B889BB223F4E04323F04003BB84EE
:1050AC007A683B681B789B001A44BB8C43F07F43A7
:1050BC0043F47F0343F4004343F080039BB213801B
:1050CC007A683B681B789B0013441B889BB223F4C3
:1050DC00804323F070037B847A683B681B789B00C9
:1050EC001A447B8C43F07F4343F47F0343F4004327
:1050FC0043F080039BB21380002318463437BD461F
:10510C0080BC704780B5C2B000AF07F58473A3F5BF
:10511C008273186007F58473A3F58473196007F51F
:10512C008473A3F584731B685B78012B40F0B786FE
:10513C0007F58473A3F584731B689A6907F5847368
:10514C00A3F584731B681B699A4208D907F584730D
:10515C00A3F584731B681B69C7F8043107E007F5D6
:10516C008473A3F584731B689B69C7F8043107F536
:10517C008473A3F584731B681B7B002B3AD107F552
:10518C008473A3F584731B68596907F58473A3F5BD
:10519C0084731B68DA88D7F804319BB207F58470E6
:1051AC00A0F58270006801F09CFC07F58473A3F5F0
:1051BC0082731B683B6107F58473A3F582731B68CC
:1051CC00B3F850309BB21A463B6913443B6107F568
:1051DC008473A3F584731B681B781A013B69134411
:1051EC0003F20443FB60D7F804319AB2FB681A80CF
:1051FC0000F01FBE07F58473A3F584731B68DB787E
:10520C00022B40F0628407F58473A3F584731B684A
:10521C001A6A07F58473A3F584731B681B699A4299
:10522C0040F2DF8307F58473A3F582731A6807F5E0
:10523C008473A3F584731B681B789B0013441B8831
:10524C009BB223F4E04323F07003A7F8563007F524
:10525C008473A3F582731A6807F58473A3F58473BA
:10526C001B681B789B001A44B7F8563043F07F43F9
:10527C0043F47F0343F4014343F080039BB2138058
:10528C0007F58473A3F584731B681A6AD7F8043185
:10529C00D21A07F58473A3F584731B681A6207F599
:1052AC008473A3F582731A6807F58473A3F584736A
:1052BC001B681B789B0013441B889BB203F04003B4
:1052CC00002B00F0C78107F58473A3F582731B686C
:1052DC003B6307F58473A3F584731B685B78002B21
:1052EC0077D107F58473A3F582731B68BB6207F54E
:1052FC008473A3F582731B68B3F850309BB21A46C3
:10530C00BB6A1344BB6207F58473A3F584731B68F3
:10531C001B781A01BB6A134403F20C437B627B6A51
:10532C001B889BB2C3F309039AB27B6A1A80D7F825
:10533C0004313E2B21D9D7F804315B09C7F8003171
:10534C00D7F8043103F01F03002B04D1D7F8003138
:10535C00013BC7F800317B6A1B889AB2D7F8003141
:10536C009BB29B029BB213439BB26FEA43436FEA1F
:10537C0053439AB27B6A1A8050E0D7F80431002B61
:10538C000AD17B6A1B889BB26FEA43436FEA534393
:10539C009AB27B6A1A8041E0D7F804315B08C7F8EF
:1053AC000031D7F8043103F00103002B04D0D7F8F7
:1053BC0000310133C7F800317B6A1B889AB2D7F8E9
:1053CC0000319BB29B029BB213439AB27B6A1A8048
:1053DC0024E007F58473A3F584731B685B78012BB9
:1053EC001CD107F58473A3F582731B68B3F8503096
:1053FC009BB21A463B6B13443B6307F58473A3F5CE
:10540C0084731B681B781A013B6B134403F20C4327
:10541C00FB62D7F804319AB2FB6A1A8007F58473E1
:10542C00A3F584731B685B89A7F8763007F5847342
:10543C00A3F584731B685969D7F804319BB2B7F88C
:10544C00762007F58470A0F58270006801F049FBA6
:10545C0007F58473A3F584731B685A69D7F8043174
:10546C001A4407F58473A3F584731B685A6107F516
:10547C008473A3F584731B681A6A07F58473A3F508
:10548C0084731B681B699A420FD907F58473A3F5C3
:10549C0084731B681A6AD7F80431D21A07F584731F
:1054AC00A3F584731B681A620EE007F58473A3F5E9
:1054BC0084731B681B6AC7F8043107F58473A3F562
:1054CC0084731B6800221A6207F58473A3F5847336
:1054DC001B685B78002B77D107F58473A3F5827377
:1054EC001B68BB6107F58473A3F582731B68B3F863
:1054FC0050309BB21A46BB691344BB6107F58473E9
:10550C00A3F584731B681B781A01BB69134403F25F
:10551C0004437B617B691B889BB2C3F309039AB27A
:10552C007B691A80D7F804313E2B21D9D7F8043186
:10553C005B09C7F8FC30D7F8043103F01F03002BCC
:10554C0004D1D7F8FC30013BC7F8FC307B691B88D1
:10555C009AB2D7F8FC309BB29B029BB213439BB21E
:10556C006FEA43436FEA53439AB27B691A8056E061
:10557C00D7F80431002B0AD17B691B889BB26FEAE8
:10558C0043436FEA53439AB27B691A8047E0D7F8DA
:10559C0004315B08C7F8FC30D7F8043103F0010381
:1055AC00002B04D0D7F8FC300133C7F8FC307B69F2
:1055BC001B889AB2D7F8FC309BB29B029BB2134368
:1055CC009AB27B691A802AE007F58473A3F5847379
:1055DC001B685B78012B22D107F58473A3F58273CA
:1055EC001B683B6207F58473A3F582731B68B3F8E1
:1055FC0050309BB21A463B6A13443B6207F58473E6
:10560C00A3F584731B681B781A013B6A134403F2DD
:10561C000443FB61D7F804319AB2FB691A8007F591
:10562C008473A3F584731B681B89A7F8763007F580
:10563C008473A3F584731B685969D7F804319BB242
:10564C00B7F8762007F58470A0F58270006801F039
:10565C0048FAEEE307F58473A3F584731B685B7853
:10566C00002B77D107F58473A3F582731B68BB6499
:10567C0007F58473A3F582731B68B3F850309BB2A3
:10568C001A46BB6C1344BB6407F58473A3F584738F
:10569C001B681B781A01BB6C134403F204437B6434
:1056AC007B6C1B889BB2C3F309039AB27B6C1A8088
:1056BC00D7F804313E2B21D9D7F804315B09C7F850
:1056CC00F830D7F8043103F01F03002B04D1D7F8BE
:1056DC00F830013BC7F8F8307B6C1B889AB2D7F8CE
:1056EC00F8309BB29B029BB213439BB26FEA4343CD
:1056FC006FEA53439AB27B6C1A8056E0D7F80431A8
:10570C00002B0AD17B6C1B889BB26FEA43436FEA78
:10571C0053439AB27B6C1A8047E0D7F804315B088C
:10572C00C7F8F830D7F8043103F00103002B04D08C
:10573C00D7F8F8300133C7F8F8307B6C1B889AB275
:10574C00D7F8F8309BB29B029BB213439AB27B6C96
:10575C001A802AE007F58473A3F584731B685B78C1
:10576C00012B22D107F58473A3F582731B683B656B
:10577C0007F58473A3F582731B68B3F850309BB2A2
:10578C001A463B6D13443B6507F58473A3F584738C
:10579C001B681B781A013B6D134403F20443FB6432
:1057AC00D7F804319AB2FB6C1A8007F58473A3F511
:1057BC0084731B681B89A7F8763007F58473A3F5EF
:1057CC0084731B685969D7F804319BB2B7F87620FB
:1057DC0007F58470A0F58270006801F082F907F576
:1057EC008473A3F584731B685A69D7F804311A447F
:1057FC0007F58473A3F584731B685A6107F58473EA
:10580C00A3F584731B681A6A07F58473A3F5847374
:10581C001B681B699A420FD907F58473A3F584732F
:10582C001B681A6AD7F80431D21A07F58473A3F5EA
:10583C0084731B681A620EE007F58473A3F58473F6
:10584C001B681B6AC7F8043107F58473A3F58473CE
:10585C001B6800221A6207F58473A3F582731B6818
:10586C003B6407F58473A3F584731B685B78002B8A
:10587C0077D107F58473A3F582731B68BB6307F5B7
:10588C008473A3F582731B68B3F850309BB21A462D
:10589C00BB6B1344BB6307F58473A3F584731B685C
:1058AC001B781A01BB6B134403F20C437B637B6BB9
:1058BC001B889BB2C3F309039AB27B6B1A80D7F88F
:1058CC0004313E2B21D9D7F804315B09C7F8F430E9
:1058DC00D7F8043103F01F03002B04D1D7F8F430B0
:1058EC00013BC7F8F4307B6B1B889AB2D7F8F430C5
:1058FC009BB29B029BB213439BB26FEA43436FEA8A
:10590C0053439AB27B6B1A8050E0D7F80431002BCA
:10591C000AD17B6B1B889BB26FEA43436FEA5343FC
:10592C009AB27B6B1A8041E0D7F804315B08C7F858
:10593C00F430D7F8043103F00103002B04D0D7F86E
:10594C00F4300133C7F8F4307B6B1B889AB2D7F86C
:10595C00F4309BB29B029BB213439AB27B6B1A80BE
:10596C0024E007F58473A3F584731B685B78012B23
:10597C001CD107F58473A3F582731B68B3F8503000
:10598C009BB21A463B6C13443B6407F58473A3F536
:10599C0084731B681B781A013B6C134403F20C4391
:1059AC00FB63D7F804319AB2FB6B1A8007F584734A
:1059BC00A3F584731B685B89A7F8763007F58473AD
:1059CC00A3F584731B685969D7F804319BB2B7F8F7
:1059DC00762007F58470A0F58270006801F081F8DC
:1059EC0027E207F58473A3F584731B681B6AC7F859
:1059FC00043107F58473A3F582731A6807F5847371
:105A0C00A3F584731B681B789B0013441B889BB203
:105A1C0023F4E24323F07003A7F8623007F5847394
:105A2C00A3F582731A6807F58473A3F584731B6856
:105A3C001B789B001A44B7F8623043F07F4343F461
:105A4C007F0343F4004343F080039BB2138007F5BC
:105A5C008473A3F582731B68FB6507F58473A3F548
:105A6C0082731B68B3F850309BB21A46FB6D13441B
:105A7C00FB6507F58473A3F584731B681B781A0107
:105A8C00FB6D134403F20443BB65D7F804319AB29F
:105A9C00BB6D1A8007F58473A3F584731B681B898F
:105AAC00A7F8763007F58473A3F584731B685969DE
:105ABC00D7F804319BB2B7F8762007F58470A0F5BF
:105ACC008270006801F00DF8B3E107F58473A3F55B
